{
  "contractName": "BeekeeperRole",
  "abi": [
    {
      "inputs": [],
      "payable": false,
      "stateMutability": "nonpayable",
      "type": "constructor"
    },
    {
      "anonymous": false,
      "inputs": [
        {
          "indexed": true,
          "name": "account",
          "type": "address"
        }
      ],
      "name": "BeekeeperAdded",
      "type": "event"
    },
    {
      "anonymous": false,
      "inputs": [
        {
          "indexed": true,
          "name": "account",
          "type": "address"
        }
      ],
      "name": "BeekeeperRemoved",
      "type": "event"
    },
    {
      "constant": true,
      "inputs": [
        {
          "name": "account",
          "type": "address"
        }
      ],
      "name": "isBeekeeper",
      "outputs": [
        {
          "name": "",
          "type": "bool"
        }
      ],
      "payable": false,
      "stateMutability": "view",
      "type": "function"
    },
    {
      "constant": false,
      "inputs": [
        {
          "name": "account",
          "type": "address"
        }
      ],
      "name": "addBeekeeper",
      "outputs": [],
      "payable": false,
      "stateMutability": "nonpayable",
      "type": "function"
    },
    {
      "constant": false,
      "inputs": [],
      "name": "renounceBeekeeper",
      "outputs": [],
      "payable": false,
      "stateMutability": "nonpayable",
      "type": "function"
    }
  ],
  "bytecode": "0x608060405234801561001057600080fd5b506100293361002e640100000000026401000000009004565b6101e8565b61004f81600061009564010000000002610350179091906401000000009004565b8073ffffffffffffffffffffffffffffffffffffffff167fc2116b89b5e25ab46bf9e7c8867857c279cae150c9124db9fb2d9019833267d660405160405180910390a250565b600073ffffffffffffffffffffffffffffffffffffffff168173ffffffffffffffffffffffffffffffffffffffff16141515156100d157600080fd5b6100ea8282610154640100000000026401000000009004565b1515156100f657600080fd5b60018260000160008373ffffffffffffffffffffffffffffffffffffffff1673ffffffffffffffffffffffffffffffffffffffff16815260200190815260200160002060006101000a81548160ff0219169083151502179055505050565b60008073ffffffffffffffffffffffffffffffffffffffff168273ffffffffffffffffffffffffffffffffffffffff161415151561019157600080fd5b8260000160008373ffffffffffffffffffffffffffffffffffffffff1673ffffffffffffffffffffffffffffffffffffffff16815260200190815260200160002060009054906101000a900460ff16905092915050565b61042c806101f76000396000f300608060405260043610610057576000357c0100000000000000000000000000000000000000000000000000000000900463ffffffff168063290c8c991461005c5780636cf01b741461007357806398afe711146100ce575b600080fd5b34801561006857600080fd5b50610071610111565b005b34801561007f57600080fd5b506100b4600480360381019080803573ffffffffffffffffffffffffffffffffffffffff16906020019092919050505061011c565b604051808215151515815260200191505060405180910390f35b3480156100da57600080fd5b5061010f600480360381019080803573ffffffffffffffffffffffffffffffffffffffff169060200190929190505050610139565b005b61011a33610159565b565b60006101328260006101b390919063ffffffff16565b9050919050565b6101423361011c565b151561014d57600080fd5b61015681610247565b50565b61016d8160006102a190919063ffffffff16565b8073ffffffffffffffffffffffffffffffffffffffff167f71146b70dcaea4b40f537c9b94bea43823a1ac5f0940c880770361b4c90da4b760405160405180910390a250565b60008073ffffffffffffffffffffffffffffffffffffffff168273ffffffffffffffffffffffffffffffffffffffff16141515156101f057600080fd5b8260000160008373ffffffffffffffffffffffffffffffffffffffff1673ffffffffffffffffffffffffffffffffffffffff16815260200190815260200160002060009054906101000a900460ff16905092915050565b61025b81600061035090919063ffffffff16565b8073ffffffffffffffffffffffffffffffffffffffff167fc2116b89b5e25ab46bf9e7c8867857c279cae150c9124db9fb2d9019833267d660405160405180910390a250565b600073ffffffffffffffffffffffffffffffffffffffff168173ffffffffffffffffffffffffffffffffffffffff16141515156102dd57600080fd5b6102e782826101b3565b15156102f257600080fd5b60008260000160008373ffffffffffffffffffffffffffffffffffffffff1673ffffffffffffffffffffffffffffffffffffffff16815260200190815260200160002060006101000a81548160ff0219169083151502179055505050565b600073ffffffffffffffffffffffffffffffffffffffff168173ffffffffffffffffffffffffffffffffffffffff161415151561038c57600080fd5b61039682826101b3565b1515156103a257600080fd5b60018260000160008373ffffffffffffffffffffffffffffffffffffffff1673ffffffffffffffffffffffffffffffffffffffff16815260200190815260200160002060006101000a81548160ff02191690831515021790555050505600a165627a7a72305820340d1668c40cb539e314e8b0d006cac0821d5522531a067aa16439e30a2c7b600029",
  "source": "pragma solidity ^0.4.24;\n\n// Import the library 'Roles'\nimport \"./Roles.sol\";\n\n// Define a contract 'BeekeeperRole' to manage this role - add, remove, check\ncontract BeekeeperRole {\n  using Roles for Roles.Role;\n\n  // Define 2 events, one for Adding, and other for Removing\n  event BeekeeperAdded(address indexed account);\n  event BeekeeperRemoved(address indexed account);\n\n  // Define a struct 'Beekeepers' by inheriting from 'Roles' library, struct Role\n  Roles.Role private Beekeepers;\n\n  // In the constructor make the address that deploys this contract the 1st Beekeeper\n  constructor() public {\n    _addBeekeeper(msg.sender);\n  }\n\n  // Define a modifier that checks to see if msg.sender has the appropriate role\n  modifier onlyBeekeeper() {\n    require(isBeekeeper(msg.sender));\n    _;\n  }\n\n  // Define a function 'isBeekeeper' to check this role\n  function isBeekeeper(address account) public view returns (bool) {\n    return Beekeepers.has(account);\n  }\n\n  // Define a function 'addBeekeeper' that adds this role\n  function addBeekeeper(address account) public onlyBeekeeper {\n    _addBeekeeper(account);\n  }\n\n  // Define a function 'renounceBeekeeper' to renounce this role\n  function renounceBeekeeper() public {\n    _removeBeekeeper(msg.sender);\n  }\n\n  // Define an internal function '_addBeekeeper' to add this role, called by 'addBeekeeper'\n  function _addBeekeeper(address account) internal {\n    Beekeepers.add(account);\n    emit BeekeeperAdded(account);\n  }\n\n  // Define an internal function '_removeBeekeeper' to remove this role, called by 'removeBeekeeper'\n  function _removeBeekeeper(address account) internal {\n    Beekeepers.remove(account);\n    emit BeekeeperRemoved(account);\n  }\n}",
  "sourcePath": "/Users/anolan/code/udacity/BlockChainDeveloper_II/BlockchainSupplyChainSolution/project-6/project-6/contracts/beehivesaccesscontrol/BeekeeperRole.sol",
  "compiler": {
    "name": "solc",
    "version": "0.4.25+commit.59dbf8f1.Emscripten.clang"
  },
  "schemaVersion": "2.0.2",
  "updatedAt": "2019-07-15T01:10:43.309Z"
}