{
  "contractName": "BeekeeperRole",
  "abi": [
    {
      "inputs": [],
      "payable": false,
      "stateMutability": "nonpayable",
      "type": "constructor"
    },
    {
      "anonymous": false,
      "inputs": [
        {
          "indexed": true,
          "name": "account",
          "type": "address"
        }
      ],
      "name": "BeekeeperAdded",
      "type": "event"
    },
    {
      "anonymous": false,
      "inputs": [
        {
          "indexed": true,
          "name": "account",
          "type": "address"
        }
      ],
      "name": "BeekeeperRemoved",
      "type": "event"
    },
    {
      "constant": true,
      "inputs": [
        {
          "name": "account",
          "type": "address"
        }
      ],
      "name": "isBeekeeper",
      "outputs": [
        {
          "name": "",
          "type": "bool"
        }
      ],
      "payable": false,
      "stateMutability": "view",
      "type": "function"
    },
    {
      "constant": false,
      "inputs": [
        {
          "name": "account",
          "type": "address"
        }
      ],
      "name": "addBeekeeper",
      "outputs": [],
      "payable": false,
      "stateMutability": "nonpayable",
      "type": "function"
    },
    {
      "constant": false,
      "inputs": [],
      "name": "renounceBeekeeper",
      "outputs": [],
      "payable": false,
      "stateMutability": "nonpayable",
      "type": "function"
    }
  ],
  "bytecode": "0x608060405234801561001057600080fd5b506100293361002e640100000000026401000000009004565b6101e8565b61004f8160006100956401000000000261033c179091906401000000009004565b8073ffffffffffffffffffffffffffffffffffffffff167fc2116b89b5e25ab46bf9e7c8867857c279cae150c9124db9fb2d9019833267d660405160405180910390a250565b600073ffffffffffffffffffffffffffffffffffffffff168173ffffffffffffffffffffffffffffffffffffffff16141515156100d157600080fd5b6100ea8282610154640100000000026401000000009004565b1515156100f657600080fd5b60018260000160008373ffffffffffffffffffffffffffffffffffffffff1673ffffffffffffffffffffffffffffffffffffffff16815260200190815260200160002060006101000a81548160ff0219169083151502179055505050565b60008073ffffffffffffffffffffffffffffffffffffffff168273ffffffffffffffffffffffffffffffffffffffff161415151561019157600080fd5b8260000160008373ffffffffffffffffffffffffffffffffffffffff1673ffffffffffffffffffffffffffffffffffffffff16815260200190815260200160002060009054906101000a900460ff16905092915050565b610418806101f76000396000f300608060405260043610610057576000357c0100000000000000000000000000000000000000000000000000000000900463ffffffff168063290c8c991461005c5780636cf01b741461007357806398afe711146100ce575b600080fd5b34801561006857600080fd5b50610071610111565b005b34801561007f57600080fd5b506100b4600480360381019080803573ffffffffffffffffffffffffffffffffffffffff16906020019092919050505061011c565b604051808215151515815260200191505060405180910390f35b3480156100da57600080fd5b5061010f600480360381019080803573ffffffffffffffffffffffffffffffffffffffff169060200190929190505050610139565b005b61011a33610145565b565b600061013282600061019f90919063ffffffff16565b9050919050565b61014281610233565b50565b61015981600061028d90919063ffffffff16565b8073ffffffffffffffffffffffffffffffffffffffff167f71146b70dcaea4b40f537c9b94bea43823a1ac5f0940c880770361b4c90da4b760405160405180910390a250565b60008073ffffffffffffffffffffffffffffffffffffffff168273ffffffffffffffffffffffffffffffffffffffff16141515156101dc57600080fd5b8260000160008373ffffffffffffffffffffffffffffffffffffffff1673ffffffffffffffffffffffffffffffffffffffff16815260200190815260200160002060009054906101000a900460ff16905092915050565b61024781600061033c90919063ffffffff16565b8073ffffffffffffffffffffffffffffffffffffffff167fc2116b89b5e25ab46bf9e7c8867857c279cae150c9124db9fb2d9019833267d660405160405180910390a250565b600073ffffffffffffffffffffffffffffffffffffffff168173ffffffffffffffffffffffffffffffffffffffff16141515156102c957600080fd5b6102d3828261019f565b15156102de57600080fd5b60008260000160008373ffffffffffffffffffffffffffffffffffffffff1673ffffffffffffffffffffffffffffffffffffffff16815260200190815260200160002060006101000a81548160ff0219169083151502179055505050565b600073ffffffffffffffffffffffffffffffffffffffff168173ffffffffffffffffffffffffffffffffffffffff161415151561037857600080fd5b610382828261019f565b15151561038e57600080fd5b60018260000160008373ffffffffffffffffffffffffffffffffffffffff1673ffffffffffffffffffffffffffffffffffffffff16815260200190815260200160002060006101000a81548160ff02191690831515021790555050505600a165627a7a7230582092ef8f554d0543f6a4490779cf95be954ab2a52668aa396273be69010c4242a20029",
  "source": "pragma solidity ^0.4.24;\n\n// Import the library 'Roles'\nimport \"./Roles.sol\";\n\n// Define a contract 'BeekeeperRole' to manage this role - add, remove, check\ncontract BeekeeperRole {\n  using Roles for Roles.Role;\n\n  // Define 2 events, one for Adding, and other for Removing\n  event BeekeeperAdded(address indexed account);\n  event BeekeeperRemoved(address indexed account);\n\n  // Define a struct 'Beekeepers' by inheriting from 'Roles' library, struct Role\n  Roles.Role private Beekeepers;\n\n  // In the constructor make the address that deploys this contract the 1st Beekeeper\n  constructor() public {\n    _addBeekeeper(msg.sender);\n  }\n\n  // Define a modifier that checks to see if msg.sender has the appropriate role\n  modifier onlyBeekeeper() {\n    require(isBeekeeper(msg.sender));\n    _;\n  }\n\n  // Define a function 'isBeekeeper' to check this role\n  function isBeekeeper(address account) public view returns (bool) {\n    return Beekeepers.has(account);\n  }\n\n  // Define a function 'addBeekeeper' that adds this role\n  function addBeekeeper(address account) public  {\n    _addBeekeeper(account);\n  }\n\n  // Define a function 'renounceBeekeeper' to renounce this role\n  function renounceBeekeeper() public {\n    _removeBeekeeper(msg.sender);\n  }\n\n  // Define an internal function '_addBeekeeper' to add this role, called by 'addBeekeeper'\n  function _addBeekeeper(address account) internal {\n    Beekeepers.add(account);\n    emit BeekeeperAdded(account);\n  }\n\n  // Define an internal function '_removeBeekeeper' to remove this role, called by 'removeBeekeeper'\n  function _removeBeekeeper(address account) internal {\n    Beekeepers.remove(account);\n    emit BeekeeperRemoved(account);\n  }\n}",
  "sourcePath": "/Users/anolan/code/udacity/BlockChainDeveloper_II/BlockchainSupplyChainSolution/project-6/project-6/contracts/beehivesaccesscontrol/BeekeeperRole.sol",
  "compiler": {
    "name": "solc",
    "version": "0.4.25+commit.59dbf8f1.Emscripten.clang"
  },
  "schemaVersion": "2.0.2",
  "updatedAt": "2019-07-17T10:30:38.257Z"
}