{
  "contractName": "CourierRole",
  "abi": [
    {
      "inputs": [],
      "payable": false,
      "stateMutability": "nonpayable",
      "type": "constructor"
    },
    {
      "anonymous": false,
      "inputs": [
        {
          "indexed": true,
          "name": "account",
          "type": "address"
        }
      ],
      "name": "CourierAdded",
      "type": "event"
    },
    {
      "anonymous": false,
      "inputs": [
        {
          "indexed": true,
          "name": "account",
          "type": "address"
        }
      ],
      "name": "CourierRemoved",
      "type": "event"
    },
    {
      "constant": true,
      "inputs": [
        {
          "name": "account",
          "type": "address"
        }
      ],
      "name": "isCourier",
      "outputs": [
        {
          "name": "",
          "type": "bool"
        }
      ],
      "payable": false,
      "stateMutability": "view",
      "type": "function"
    },
    {
      "constant": false,
      "inputs": [
        {
          "name": "account",
          "type": "address"
        }
      ],
      "name": "addCourier",
      "outputs": [],
      "payable": false,
      "stateMutability": "nonpayable",
      "type": "function"
    },
    {
      "constant": false,
      "inputs": [],
      "name": "renounceCourier",
      "outputs": [],
      "payable": false,
      "stateMutability": "nonpayable",
      "type": "function"
    }
  ],
  "bytecode": "0x608060405234801561001057600080fd5b506100293361002e640100000000026401000000009004565b6101e8565b61004f8160006100956401000000000261028d179091906401000000009004565b8073ffffffffffffffffffffffffffffffffffffffff167f3edf7fbf8b7798e112e80b62e99d0d02aad9b90bb6bde8594b26769fe66d2f0b60405160405180910390a250565b600073ffffffffffffffffffffffffffffffffffffffff168173ffffffffffffffffffffffffffffffffffffffff16141515156100d157600080fd5b6100ea8282610154640100000000026401000000009004565b1515156100f657600080fd5b60018260000160008373ffffffffffffffffffffffffffffffffffffffff1673ffffffffffffffffffffffffffffffffffffffff16815260200190815260200160002060006101000a81548160ff0219169083151502179055505050565b60008073ffffffffffffffffffffffffffffffffffffffff168273ffffffffffffffffffffffffffffffffffffffff161415151561019157600080fd5b8260000160008373ffffffffffffffffffffffffffffffffffffffff1673ffffffffffffffffffffffffffffffffffffffff16815260200190815260200160002060009054906101000a900460ff16905092915050565b610369806101f76000396000f300608060405260043610610057576000357c0100000000000000000000000000000000000000000000000000000000900463ffffffff1680632445d6d71461005c578063b7f77ae81461009f578063ba439488146100fa575b600080fd5b34801561006857600080fd5b5061009d600480360381019080803573ffffffffffffffffffffffffffffffffffffffff169060200190929190505050610111565b005b3480156100ab57600080fd5b506100e0600480360381019080803573ffffffffffffffffffffffffffffffffffffffff16906020019092919050505061011d565b604051808215151515815260200191505060405180910390f35b34801561010657600080fd5b5061010f61013a565b005b61011a81610145565b50565b600061013382600061019f90919063ffffffff16565b9050919050565b61014333610233565b565b61015981600061028d90919063ffffffff16565b8073ffffffffffffffffffffffffffffffffffffffff167f3edf7fbf8b7798e112e80b62e99d0d02aad9b90bb6bde8594b26769fe66d2f0b60405160405180910390a250565b60008073ffffffffffffffffffffffffffffffffffffffff168273ffffffffffffffffffffffffffffffffffffffff16141515156101dc57600080fd5b8260000160008373ffffffffffffffffffffffffffffffffffffffff1673ffffffffffffffffffffffffffffffffffffffff16815260200190815260200160002060009054906101000a900460ff16905092915050565b61024781600061028d90919063ffffffff16565b8073ffffffffffffffffffffffffffffffffffffffff167f5af924b55ba36fb468e40e667491097679bb9bd13a8238fea01ad352f6f96bee60405160405180910390a250565b600073ffffffffffffffffffffffffffffffffffffffff168173ffffffffffffffffffffffffffffffffffffffff16141515156102c957600080fd5b6102d3828261019f565b1515156102df57600080fd5b60018260000160008373ffffffffffffffffffffffffffffffffffffffff1673ffffffffffffffffffffffffffffffffffffffff16815260200190815260200160002060006101000a81548160ff02191690831515021790555050505600a165627a7a723058203aeeebbc7560508298418e461dc8761c68a7b19a5dea6c6f5562c0b69c4d4b850029",
  "source": "pragma solidity ^0.4.24;\n\n// Import the library 'Roles'\nimport \"./Roles.sol\";\n\n// Define a contract 'CourierRole' to manage this role - add, remove, check\ncontract CourierRole {\n  using Roles for Roles.Role;\n\n  // Define 2 events, one for Adding, and other for Removing\n  event CourierAdded(address indexed account);\n  event CourierRemoved (address indexed account);\n\n  // Define a struct 'Couriers' by inheriting from 'Roles' library, struct Role\n  Roles.Role private Couriers;\n\n  // In the constructor make the address that deploys this contract the 1st Courier\n  constructor() public {\n    _addCourier(msg.sender);  \n  }\n\n  // Define a modifier that checks to see if msg.sender has the appropriate role\n  modifier onlyCourier() {\n    require (isCourier(msg.sender));\n    _;\n  }\n\n  // Define a function 'isCourier' to check this role\n  function isCourier(address account) public view returns (bool) {\n    return Couriers.has(account);\n  }\n\n  // Define a function 'addCourier' that adds this role\n  function addCourier(address account) public  {\n    _addCourier(account);\n  }\n\n  // Define a function 'renounceCourier' to renounce this role\n  function renounceCourier() public {\n    _removeCourier(msg.sender);\n  }\n\n  // Define an internal function '_addCourier' to add this role, called by 'addCourier'\n  function _addCourier(address account) internal {\n    Couriers.add(account);\n    emit CourierAdded(account);\n  }\n\n  // Define an internal function '_removeCourier' to remove this role, called by 'removeCourier'\n  function _removeCourier(address account) internal {\n    Couriers.add(account);\n    emit CourierRemoved(account);\n  }\n}",
  "sourcePath": "/Users/anolan/code/udacity/BlockChainDeveloper_II/BlockchainSupplyChainSolution/project-6/project-6/contracts/beehivesaccesscontrol/CourierRole.sol",
  "compiler": {
    "name": "solc",
    "version": "0.4.25+commit.59dbf8f1.Emscripten.clang"
  },
  "schemaVersion": "2.0.2",
  "updatedAt": "2019-07-17T09:57:24.085Z"
}