{
  "contractName": "MarketPlaceRole",
  "abi": [
    {
      "inputs": [],
      "payable": false,
      "stateMutability": "nonpayable",
      "type": "constructor"
    },
    {
      "anonymous": false,
      "inputs": [
        {
          "indexed": true,
          "name": "account",
          "type": "address"
        }
      ],
      "name": "MarketPlaceAdded",
      "type": "event"
    },
    {
      "anonymous": false,
      "inputs": [
        {
          "indexed": true,
          "name": "account",
          "type": "address"
        }
      ],
      "name": "MarketPlaceRemoved",
      "type": "event"
    },
    {
      "constant": true,
      "inputs": [
        {
          "name": "account",
          "type": "address"
        }
      ],
      "name": "isMarketPlace",
      "outputs": [
        {
          "name": "",
          "type": "bool"
        }
      ],
      "payable": false,
      "stateMutability": "view",
      "type": "function"
    },
    {
      "constant": false,
      "inputs": [
        {
          "name": "account",
          "type": "address"
        }
      ],
      "name": "addMarketPlace",
      "outputs": [],
      "payable": false,
      "stateMutability": "nonpayable",
      "type": "function"
    },
    {
      "constant": false,
      "inputs": [],
      "name": "renounceMarketPlace",
      "outputs": [],
      "payable": false,
      "stateMutability": "nonpayable",
      "type": "function"
    }
  ],
  "bytecode": "0x608060405234801561001057600080fd5b506100293361002e640100000000026401000000009004565b6101e8565b61004f8160006100956401000000000261033c179091906401000000009004565b8073ffffffffffffffffffffffffffffffffffffffff167fd5ba4d4d7d415d35174d230a1cd78cb675802bba2852b75cdcebef90a002465e60405160405180910390a250565b600073ffffffffffffffffffffffffffffffffffffffff168173ffffffffffffffffffffffffffffffffffffffff16141515156100d157600080fd5b6100ea8282610154640100000000026401000000009004565b1515156100f657600080fd5b60018260000160008373ffffffffffffffffffffffffffffffffffffffff1673ffffffffffffffffffffffffffffffffffffffff16815260200190815260200160002060006101000a81548160ff0219169083151502179055505050565b60008073ffffffffffffffffffffffffffffffffffffffff168273ffffffffffffffffffffffffffffffffffffffff161415151561019157600080fd5b8260000160008373ffffffffffffffffffffffffffffffffffffffff1673ffffffffffffffffffffffffffffffffffffffff16815260200190815260200160002060009054906101000a900460ff16905092915050565b610418806101f76000396000f300608060405260043610610057576000357c0100000000000000000000000000000000000000000000000000000000900463ffffffff1680631414c9f11461005c5780632c64462e146100b7578063d2245241146100ce575b600080fd5b34801561006857600080fd5b5061009d600480360381019080803573ffffffffffffffffffffffffffffffffffffffff169060200190929190505050610111565b604051808215151515815260200191505060405180910390f35b3480156100c357600080fd5b506100cc61012e565b005b3480156100da57600080fd5b5061010f600480360381019080803573ffffffffffffffffffffffffffffffffffffffff169060200190929190505050610139565b005b600061012782600061014590919063ffffffff16565b9050919050565b610137336101d9565b565b61014281610233565b50565b60008073ffffffffffffffffffffffffffffffffffffffff168273ffffffffffffffffffffffffffffffffffffffff161415151561018257600080fd5b8260000160008373ffffffffffffffffffffffffffffffffffffffff1673ffffffffffffffffffffffffffffffffffffffff16815260200190815260200160002060009054906101000a900460ff16905092915050565b6101ed81600061028d90919063ffffffff16565b8073ffffffffffffffffffffffffffffffffffffffff167fe9f3c37d79ca9deec2d20dbe6c61a6841b4ecf7514cf7270f507f69afa54860360405160405180910390a250565b61024781600061033c90919063ffffffff16565b8073ffffffffffffffffffffffffffffffffffffffff167fd5ba4d4d7d415d35174d230a1cd78cb675802bba2852b75cdcebef90a002465e60405160405180910390a250565b600073ffffffffffffffffffffffffffffffffffffffff168173ffffffffffffffffffffffffffffffffffffffff16141515156102c957600080fd5b6102d38282610145565b15156102de57600080fd5b60008260000160008373ffffffffffffffffffffffffffffffffffffffff1673ffffffffffffffffffffffffffffffffffffffff16815260200190815260200160002060006101000a81548160ff0219169083151502179055505050565b600073ffffffffffffffffffffffffffffffffffffffff168173ffffffffffffffffffffffffffffffffffffffff161415151561037857600080fd5b6103828282610145565b15151561038e57600080fd5b60018260000160008373ffffffffffffffffffffffffffffffffffffffff1673ffffffffffffffffffffffffffffffffffffffff16815260200190815260200160002060006101000a81548160ff02191690831515021790555050505600a165627a7a723058208450815bb0ab7f9a5d8413d5e4b65db22c7d95885843b261ff4950a755ad3e2e0029",
  "source": "pragma solidity ^0.4.24;\n\n// Import the library 'Roles'\nimport \"./Roles.sol\";\n\n// Define a contract 'MarketPlaceRole' to manage this role - add, remove, check\ncontract MarketPlaceRole {\n  using Roles for Roles.Role;\n\n  // Define 2 events, one for Adding, and other for Removing\n  event MarketPlaceAdded(address indexed account);\n  event MarketPlaceRemoved(address indexed account);\n\n  // Define a struct 'MarketPlaces' by inheriting from 'Roles' library, struct Role\n  Roles.Role private MarketPlaces;\n\n  // In the constructor make the address that deploys this contract the 1st MarketPlace\n  constructor() public {\n    _addMarketPlace(msg.sender);\n  }\n\n  // Define a modifier that checks to see if msg.sender has the appropriate role\n  modifier onlyMarketPlace() {\n    require (isMarketPlace(msg.sender));\n    _;\n  }\n\n  // Define a function 'isMarketPlace' to check this role\n  function isMarketPlace(address account) public view returns (bool) {\n    return MarketPlaces.has(account);\n  }\n\n  // Define a function 'addMarketPlace' that adds this role\n  function addMarketPlace(address account)  public {\n    _addMarketPlace(account);\n  }\n\n  // Define a function 'renounceMarketPlace' to renounce this role\n  function renounceMarketPlace() public {\n    _removeMarketPlace(msg.sender);\n  }\n\n  // Define an internal function '_addMarketPlace' to add this role, called by 'addMarketPlace'\n  function _addMarketPlace(address account) internal {\n    MarketPlaces.add(account);\n    emit MarketPlaceAdded(account);\n  }\n\n  // Define an internal function '_removeMarketPlace' to remove this role, called by 'removeMarketPlace'\n  function _removeMarketPlace(address account) internal {\n    MarketPlaces.remove(account);\n    emit MarketPlaceRemoved(account);\n  }\n}",
  "sourcePath": "/Users/anolan/code/udacity/BlockChainDeveloper_II/BlockchainSupplyChainSolution/project-6/project-6/contracts/beehivesaccesscontrol/MarketPlaceRole.sol",
  "compiler": {
    "name": "solc",
    "version": "0.4.25+commit.59dbf8f1.Emscripten.clang"
  },
  "schemaVersion": "2.0.2",
  "updatedAt": "2019-07-19T11:34:47.327Z"
}