{
  "contractName": "SupplyChain",
  "abi": [
    {
      "constant": false,
      "inputs": [
        {
          "name": "account",
          "type": "address"
        }
      ],
      "name": "addConsumer",
      "outputs": [],
      "payable": false,
      "stateMutability": "nonpayable",
      "type": "function"
    },
    {
      "constant": true,
      "inputs": [
        {
          "name": "account",
          "type": "address"
        }
      ],
      "name": "isMarketPlace",
      "outputs": [
        {
          "name": "",
          "type": "bool"
        }
      ],
      "payable": false,
      "stateMutability": "view",
      "type": "function"
    },
    {
      "constant": false,
      "inputs": [
        {
          "name": "account",
          "type": "address"
        }
      ],
      "name": "addCourier",
      "outputs": [],
      "payable": false,
      "stateMutability": "nonpayable",
      "type": "function"
    },
    {
      "constant": false,
      "inputs": [],
      "name": "renounceBeekeeper",
      "outputs": [],
      "payable": false,
      "stateMutability": "nonpayable",
      "type": "function"
    },
    {
      "constant": false,
      "inputs": [],
      "name": "renounceMarketPlace",
      "outputs": [],
      "payable": false,
      "stateMutability": "nonpayable",
      "type": "function"
    },
    {
      "constant": false,
      "inputs": [],
      "name": "renounceConsumer",
      "outputs": [],
      "payable": false,
      "stateMutability": "nonpayable",
      "type": "function"
    },
    {
      "constant": true,
      "inputs": [
        {
          "name": "account",
          "type": "address"
        }
      ],
      "name": "isBeekeeper",
      "outputs": [
        {
          "name": "",
          "type": "bool"
        }
      ],
      "payable": false,
      "stateMutability": "view",
      "type": "function"
    },
    {
      "constant": false,
      "inputs": [],
      "name": "renounceOwnership",
      "outputs": [],
      "payable": false,
      "stateMutability": "nonpayable",
      "type": "function"
    },
    {
      "constant": true,
      "inputs": [
        {
          "name": "account",
          "type": "address"
        }
      ],
      "name": "isConsumer",
      "outputs": [
        {
          "name": "",
          "type": "bool"
        }
      ],
      "payable": false,
      "stateMutability": "view",
      "type": "function"
    },
    {
      "constant": true,
      "inputs": [],
      "name": "owner",
      "outputs": [
        {
          "name": "",
          "type": "address"
        }
      ],
      "payable": false,
      "stateMutability": "view",
      "type": "function"
    },
    {
      "constant": true,
      "inputs": [],
      "name": "isOwner",
      "outputs": [
        {
          "name": "",
          "type": "bool"
        }
      ],
      "payable": false,
      "stateMutability": "view",
      "type": "function"
    },
    {
      "constant": false,
      "inputs": [
        {
          "name": "account",
          "type": "address"
        }
      ],
      "name": "addBeekeeper",
      "outputs": [],
      "payable": false,
      "stateMutability": "nonpayable",
      "type": "function"
    },
    {
      "constant": true,
      "inputs": [
        {
          "name": "account",
          "type": "address"
        }
      ],
      "name": "isCourier",
      "outputs": [
        {
          "name": "",
          "type": "bool"
        }
      ],
      "payable": false,
      "stateMutability": "view",
      "type": "function"
    },
    {
      "constant": false,
      "inputs": [],
      "name": "renounceCourier",
      "outputs": [],
      "payable": false,
      "stateMutability": "nonpayable",
      "type": "function"
    },
    {
      "constant": false,
      "inputs": [
        {
          "name": "account",
          "type": "address"
        }
      ],
      "name": "addMarketPlace",
      "outputs": [],
      "payable": false,
      "stateMutability": "nonpayable",
      "type": "function"
    },
    {
      "constant": false,
      "inputs": [
        {
          "name": "newOwner",
          "type": "address"
        }
      ],
      "name": "transferOwnership",
      "outputs": [],
      "payable": false,
      "stateMutability": "nonpayable",
      "type": "function"
    },
    {
      "inputs": [],
      "payable": true,
      "stateMutability": "payable",
      "type": "constructor"
    },
    {
      "anonymous": false,
      "inputs": [
        {
          "indexed": false,
          "name": "upc",
          "type": "uint256"
        }
      ],
      "name": "Created",
      "type": "event"
    },
    {
      "anonymous": false,
      "inputs": [
        {
          "indexed": false,
          "name": "upc",
          "type": "uint256"
        }
      ],
      "name": "Ready",
      "type": "event"
    },
    {
      "anonymous": false,
      "inputs": [
        {
          "indexed": false,
          "name": "upc",
          "type": "uint256"
        }
      ],
      "name": "Advertised",
      "type": "event"
    },
    {
      "anonymous": false,
      "inputs": [
        {
          "indexed": false,
          "name": "upc",
          "type": "uint256"
        }
      ],
      "name": "ForSale",
      "type": "event"
    },
    {
      "anonymous": false,
      "inputs": [
        {
          "indexed": false,
          "name": "upc",
          "type": "uint256"
        }
      ],
      "name": "Sold",
      "type": "event"
    },
    {
      "anonymous": false,
      "inputs": [
        {
          "indexed": false,
          "name": "upc",
          "type": "uint256"
        }
      ],
      "name": "Packed",
      "type": "event"
    },
    {
      "anonymous": false,
      "inputs": [
        {
          "indexed": false,
          "name": "upc",
          "type": "uint256"
        }
      ],
      "name": "Shipped",
      "type": "event"
    },
    {
      "anonymous": false,
      "inputs": [
        {
          "indexed": false,
          "name": "upc",
          "type": "uint256"
        }
      ],
      "name": "Received",
      "type": "event"
    },
    {
      "anonymous": false,
      "inputs": [
        {
          "indexed": true,
          "name": "oldOwner",
          "type": "address"
        },
        {
          "indexed": true,
          "name": "newOwner",
          "type": "address"
        }
      ],
      "name": "TransferOwnership",
      "type": "event"
    },
    {
      "anonymous": false,
      "inputs": [
        {
          "indexed": true,
          "name": "account",
          "type": "address"
        }
      ],
      "name": "CourierAdded",
      "type": "event"
    },
    {
      "anonymous": false,
      "inputs": [
        {
          "indexed": true,
          "name": "account",
          "type": "address"
        }
      ],
      "name": "CourierRemoved",
      "type": "event"
    },
    {
      "anonymous": false,
      "inputs": [
        {
          "indexed": true,
          "name": "account",
          "type": "address"
        }
      ],
      "name": "BeekeeperAdded",
      "type": "event"
    },
    {
      "anonymous": false,
      "inputs": [
        {
          "indexed": true,
          "name": "account",
          "type": "address"
        }
      ],
      "name": "BeekeeperRemoved",
      "type": "event"
    },
    {
      "anonymous": false,
      "inputs": [
        {
          "indexed": true,
          "name": "account",
          "type": "address"
        }
      ],
      "name": "MarketPlaceAdded",
      "type": "event"
    },
    {
      "anonymous": false,
      "inputs": [
        {
          "indexed": true,
          "name": "account",
          "type": "address"
        }
      ],
      "name": "MarketPlaceRemoved",
      "type": "event"
    },
    {
      "anonymous": false,
      "inputs": [
        {
          "indexed": true,
          "name": "account",
          "type": "address"
        }
      ],
      "name": "ConsumerAdded",
      "type": "event"
    },
    {
      "anonymous": false,
      "inputs": [
        {
          "indexed": true,
          "name": "account",
          "type": "address"
        }
      ],
      "name": "ConsumerRemoved",
      "type": "event"
    },
    {
      "constant": false,
      "inputs": [],
      "name": "kill",
      "outputs": [],
      "payable": false,
      "stateMutability": "nonpayable",
      "type": "function"
    },
    {
      "constant": false,
      "inputs": [
        {
          "name": "_upc",
          "type": "uint256"
        },
        {
          "name": "_originFarmerID",
          "type": "address"
        },
        {
          "name": "_originFarmName",
          "type": "string"
        },
        {
          "name": "_originFarmInformation",
          "type": "string"
        },
        {
          "name": "_originFarmLatitude",
          "type": "string"
        },
        {
          "name": "_originFarmLongitude",
          "type": "string"
        },
        {
          "name": "_productNotes",
          "type": "string"
        }
      ],
      "name": "createItem",
      "outputs": [],
      "payable": false,
      "stateMutability": "nonpayable",
      "type": "function"
    },
    {
      "constant": false,
      "inputs": [
        {
          "name": "_upc",
          "type": "uint256"
        }
      ],
      "name": "HiveReady",
      "outputs": [],
      "payable": false,
      "stateMutability": "nonpayable",
      "type": "function"
    },
    {
      "constant": false,
      "inputs": [
        {
          "name": "_upc",
          "type": "uint256"
        }
      ],
      "name": "advertiseItem",
      "outputs": [],
      "payable": false,
      "stateMutability": "nonpayable",
      "type": "function"
    },
    {
      "constant": false,
      "inputs": [
        {
          "name": "_upc",
          "type": "uint256"
        },
        {
          "name": "_price",
          "type": "uint256"
        }
      ],
      "name": "sellItem",
      "outputs": [],
      "payable": false,
      "stateMutability": "nonpayable",
      "type": "function"
    },
    {
      "constant": false,
      "inputs": [
        {
          "name": "_upc",
          "type": "uint256"
        }
      ],
      "name": "buyItem",
      "outputs": [],
      "payable": true,
      "stateMutability": "payable",
      "type": "function"
    },
    {
      "constant": false,
      "inputs": [
        {
          "name": "_upc",
          "type": "uint256"
        },
        {
          "name": "_CourierID",
          "type": "address"
        }
      ],
      "name": "packItem",
      "outputs": [],
      "payable": false,
      "stateMutability": "nonpayable",
      "type": "function"
    },
    {
      "constant": false,
      "inputs": [
        {
          "name": "_upc",
          "type": "uint256"
        }
      ],
      "name": "shipItem",
      "outputs": [],
      "payable": false,
      "stateMutability": "nonpayable",
      "type": "function"
    },
    {
      "constant": false,
      "inputs": [
        {
          "name": "_upc",
          "type": "uint256"
        }
      ],
      "name": "receiveItem",
      "outputs": [],
      "payable": false,
      "stateMutability": "nonpayable",
      "type": "function"
    },
    {
      "constant": true,
      "inputs": [
        {
          "name": "_upc",
          "type": "uint256"
        }
      ],
      "name": "fetchItemBufferOne",
      "outputs": [
        {
          "name": "itemSKU",
          "type": "uint256"
        },
        {
          "name": "itemUPC",
          "type": "uint256"
        },
        {
          "name": "ownerID",
          "type": "address"
        },
        {
          "name": "originFarmerID",
          "type": "address"
        },
        {
          "name": "originFarmName",
          "type": "string"
        },
        {
          "name": "originFarmInformation",
          "type": "string"
        },
        {
          "name": "originFarmLatitude",
          "type": "string"
        },
        {
          "name": "originFarmLongitude",
          "type": "string"
        }
      ],
      "payable": false,
      "stateMutability": "view",
      "type": "function"
    },
    {
      "constant": true,
      "inputs": [
        {
          "name": "_upc",
          "type": "uint256"
        }
      ],
      "name": "fetchItemBufferTwo",
      "outputs": [
        {
          "name": "itemSKU",
          "type": "uint256"
        },
        {
          "name": "itemUPC",
          "type": "uint256"
        },
        {
          "name": "productID",
          "type": "uint256"
        },
        {
          "name": "productNotes",
          "type": "string"
        },
        {
          "name": "productPrice",
          "type": "uint256"
        },
        {
          "name": "itemState",
          "type": "uint256"
        },
        {
          "name": "MarketPlaceID",
          "type": "address"
        },
        {
          "name": "CourierID",
          "type": "address"
        },
        {
          "name": "consumerID",
          "type": "address"
        }
      ],
      "payable": false,
      "stateMutability": "view",
      "type": "function"
    }
  ],
  "bytecode": "0x60806040526200001e3362000140640100000000026401000000009004565b6200003833620001aa640100000000026401000000009004565b620000523362000214640100000000026401000000009004565b6200006c336200027e640100000000026401000000009004565b33600460006101000a81548173ffffffffffffffffffffffffffffffffffffffff021916908373ffffffffffffffffffffffffffffffffffffffff160217905550600460009054906101000a900473ffffffffffffffffffffffffffffffffffffffff1673ffffffffffffffffffffffffffffffffffffffff16600073ffffffffffffffffffffffffffffffffffffffff167f5c486528ec3e3f0ea91181cff8116f02bfa350e03b8b6f12e00765adbb5af85c60405160405180910390a36001600681905550600160058190555062000440565b62000164816000620002e864010000000002620026f2179091906401000000009004565b8073ffffffffffffffffffffffffffffffffffffffff167f28b26e7a3d20aedbc5f8f2ebf7da671c0491723a2b78f47a097b0e46dee0714260405160405180910390a250565b620001ce816001620002e864010000000002620026f2179091906401000000009004565b8073ffffffffffffffffffffffffffffffffffffffff167fd5ba4d4d7d415d35174d230a1cd78cb675802bba2852b75cdcebef90a002465e60405160405180910390a250565b62000238816002620002e864010000000002620026f2179091906401000000009004565b8073ffffffffffffffffffffffffffffffffffffffff167fc2116b89b5e25ab46bf9e7c8867857c279cae150c9124db9fb2d9019833267d660405160405180910390a250565b620002a2816003620002e864010000000002620026f2179091906401000000009004565b8073ffffffffffffffffffffffffffffffffffffffff167f3edf7fbf8b7798e112e80b62e99d0d02aad9b90bb6bde8594b26769fe66d2f0b60405160405180910390a250565b600073ffffffffffffffffffffffffffffffffffffffff168173ffffffffffffffffffffffffffffffffffffffff16141515156200032557600080fd5b620003408282620003ab640100000000026401000000009004565b1515156200034d57600080fd5b60018260000160008373ffffffffffffffffffffffffffffffffffffffff1673ffffffffffffffffffffffffffffffffffffffff16815260200190815260200160002060006101000a81548160ff0219169083151502179055505050565b60008073ffffffffffffffffffffffffffffffffffffffff168273ffffffffffffffffffffffffffffffffffffffff1614151515620003e957600080fd5b8260000160008373ffffffffffffffffffffffffffffffffffffffff1673ffffffffffffffffffffffffffffffffffffffff16815260200190815260200160002060009054906101000a900460ff16905092915050565b61292280620004506000396000f30060806040526004361061015f576000357c0100000000000000000000000000000000000000000000000000000000900463ffffffff168063112940f9146101645780631414c9f1146101a75780632445d6d714610202578063290c8c99146102455780632c64462e1461025c5780632d9235611461027357806341c0e1b5146102aa5780635a11a6b9146102c157806361e6982d1461046c57806366225ff9146104835780636cf01b74146105e5578063715018a61461064057806377c4591314610657578063834ff739146108b55780638da5cb5b146109105780638f32d59b1461096757806398afe71114610996578063a26be999146109d9578063b7f77ae814610a06578063ba43948814610a61578063d224524114610a78578063e7fb74c714610abb578063ef491cc414610adb578063f2fde38b14610b08578063f61c899a14610b4b578063f7ec909114610b78578063ff54a75014610bc5575b600080fd5b34801561017057600080fd5b506101a5600480360381019080803573ffffffffffffffffffffffffffffffffffffffff169060200190929190505050610bf2565b005b3480156101b357600080fd5b506101e8600480360381019080803573ffffffffffffffffffffffffffffffffffffffff169060200190929190505050610bfe565b604051808215151515815260200191505060405180910390f35b34801561020e57600080fd5b50610243600480360381019080803573ffffffffffffffffffffffffffffffffffffffff169060200190929190505050610c1b565b005b34801561025157600080fd5b5061025a610c27565b005b34801561026857600080fd5b50610271610c32565b005b34801561027f57600080fd5b506102a86004803603810190808035906020019092919080359060200190929190505050610c3d565b005b3480156102b657600080fd5b506102bf610d87565b005b3480156102cd57600080fd5b5061046a60048036038101908080359060200190929190803573ffffffffffffffffffffffffffffffffffffffff169060200190929190803590602001908201803590602001908080601f0160208091040260200160405190810160405280939291908181526020018383808284378201915050505050509192919290803590602001908201803590602001908080601f0160208091040260200160405190810160405280939291908181526020018383808284378201915050505050509192919290803590602001908201803590602001908080601f0160208091040260200160405190810160405280939291908181526020018383808284378201915050505050509192919290803590602001908201803590602001908080601f0160208091040260200160405190810160405280939291908181526020018383808284378201915050505050509192919290803590602001908201803590602001908080601f0160208091040260200160405190810160405280939291908181526020018383808284378201915050505050509192919290505050610db6565b005b34801561047857600080fd5b50610481611111565b005b34801561048f57600080fd5b506104ae6004803603810190808035906020019092919050505061111c565b604051808a8152602001898152602001888152602001806020018781526020018681526020018573ffffffffffffffffffffffffffffffffffffffff1673ffffffffffffffffffffffffffffffffffffffff1681526020018473ffffffffffffffffffffffffffffffffffffffff1673ffffffffffffffffffffffffffffffffffffffff1681526020018373ffffffffffffffffffffffffffffffffffffffff1673ffffffffffffffffffffffffffffffffffffffff168152602001828103825288818151815260200191508051906020019080838360005b838110156105a2578082015181840152602081019050610587565b50505050905090810190601f1680156105cf5780820380516001836020036101000a031916815260200191505b509a505050505050505050505060405180910390f35b3480156105f157600080fd5b50610626600480360381019080803573ffffffffffffffffffffffffffffffffffffffff169060200190929190505050611344565b604051808215151515815260200191505060405180910390f35b34801561064c57600080fd5b50610655611361565b005b34801561066357600080fd5b5061068260048036038101908080359060200190929190505050611463565b604051808981526020018881526020018773ffffffffffffffffffffffffffffffffffffffff1673ffffffffffffffffffffffffffffffffffffffff1681526020018673ffffffffffffffffffffffffffffffffffffffff1673ffffffffffffffffffffffffffffffffffffffff16815260200180602001806020018060200180602001858103855289818151815260200191508051906020019080838360005b8381101561073e578082015181840152602081019050610723565b50505050905090810190601f16801561076b5780820380516001836020036101000a031916815260200191505b50858103845288818151815260200191508051906020019080838360005b838110156107a4578082015181840152602081019050610789565b50505050905090810190601f1680156107d15780820380516001836020036101000a031916815260200191505b50858103835287818151815260200191508051906020019080838360005b8381101561080a5780820151818401526020810190506107ef565b50505050905090810190601f1680156108375780820380516001836020036101000a031916815260200191505b50858103825286818151815260200191508051906020019080838360005b83811015610870578082015181840152602081019050610855565b50505050905090810190601f16801561089d5780820380516001836020036101000a031916815260200191505b509c5050505050505050505050505060405180910390f35b3480156108c157600080fd5b506108f6600480360381019080803573ffffffffffffffffffffffffffffffffffffffff1690602001909291905050506117fa565b604051808215151515815260200191505060405180910390f35b34801561091c57600080fd5b50610925611817565b604051808273ffffffffffffffffffffffffffffffffffffffff1673ffffffffffffffffffffffffffffffffffffffff16815260200191505060405180910390f35b34801561097357600080fd5b5061097c611841565b604051808215151515815260200191505060405180910390f35b3480156109a257600080fd5b506109d7600480360381019080803573ffffffffffffffffffffffffffffffffffffffff169060200190929190505050611899565b005b3480156109e557600080fd5b50610a04600480360381019080803590602001909291905050506118a5565b005b348015610a1257600080fd5b50610a47600480360381019080803573ffffffffffffffffffffffffffffffffffffffff1690602001909291905050506119e6565b604051808215151515815260200191505060405180910390f35b348015610a6d57600080fd5b50610a76611a03565b005b348015610a8457600080fd5b50610ab9600480360381019080803573ffffffffffffffffffffffffffffffffffffffff169060200190929190505050611a0e565b005b610ad960048036038101908080359060200190929190505050611a1a565b005b348015610ae757600080fd5b50610b0660048036038101908080359060200190929190505050611ce7565b005b348015610b1457600080fd5b50610b49600480360381019080803573ffffffffffffffffffffffffffffffffffffffff169060200190929190505050611e29565b005b348015610b5757600080fd5b50610b7660048036038101908080359060200190929190505050611e76565b005b348015610b8457600080fd5b50610bc360048036038101908080359060200190929190803573ffffffffffffffffffffffffffffffffffffffff169060200190929190505050611fb8565b005b348015610bd157600080fd5b50610bf060048036038101908080359060200190929190505050612150565b005b610bfb81612292565b50565b6000610c148260016122ec90919063ffffffff16565b9050919050565b610c2481612380565b50565b610c30336123da565b565b610c3b33612434565b565b8160026007811115610c4b57fe5b60076000838152602001908152602001600020600b0160009054906101000a900460ff166007811115610c7a57fe5b141515610c8657600080fd5b60076000848152602001908152602001600020600b0160019054906101000a900473ffffffffffffffffffffffffffffffffffffffff168073ffffffffffffffffffffffffffffffffffffffff163373ffffffffffffffffffffffffffffffffffffffff16141515610cf757600080fd5b8260076000868152602001908152602001600020600a0181905550600360076000868152602001908152602001600020600b0160006101000a81548160ff02191690836007811115610d4557fe5b02179055507fa96ae0fc3224ebd79eebfe54bd130cc9cb94416cddd1f2386115e00b72532468846040518082815260200191505060405180910390a150505050565b610d8f611841565b15610db457610d9c611817565b73ffffffffffffffffffffffffffffffffffffffff16ff5b565b600060076000898152602001908152602001600020600b0160006101000a81548160ff02191690836007811115610de957fe5b02179055506006546007600089815260200190815260200160002060000181905550866007600089815260200190815260200160002060010181905550856007600089815260200190815260200160002060020160006101000a81548173ffffffffffffffffffffffffffffffffffffffff021916908373ffffffffffffffffffffffffffffffffffffffff160217905550856007600089815260200190815260200160002060030160006101000a81548173ffffffffffffffffffffffffffffffffffffffff021916908373ffffffffffffffffffffffffffffffffffffffff16021790555084600760008981526020019081526020016000206004019080519060200190610efa929190612851565b5083600760008981526020019081526020016000206005019080519060200190610f25929190612851565b5082600760008981526020019081526020016000206006019080519060200190610f50929190612851565b5081600760008981526020019081526020016000206007019080519060200190610f7b929190612851565b5080600760008981526020019081526020016000206009019080519060200190610fa6929190612851565b508560076000898152602001908152602001600020600b0160016101000a81548173ffffffffffffffffffffffffffffffffffffffff021916908373ffffffffffffffffffffffffffffffffffffffff1602179055508560076000898152602001908152602001600020600c0160006101000a81548173ffffffffffffffffffffffffffffffffffffffff021916908373ffffffffffffffffffffffffffffffffffffffff1602179055508560076000898152602001908152602001600020600d0160006101000a81548173ffffffffffffffffffffffffffffffffffffffff021916908373ffffffffffffffffffffffffffffffffffffffff160217905550866006540160076000898152602001908152602001600020600801819055506001600654016006819055507f06acbfb32bcf8383f3b0a768b70ac9ec234ea0f2d3b9c77fa6a2de69b919aad1876040518082815260200191505060405180910390a150505050505050565b61111a3361248e565b565b600080600060606000806000806000600760008b8152602001908152602001600020600001549850600760008b8152602001908152602001600020600101549750600760008b8152602001908152602001600020600801549650600760008b81526020019081526020016000206009018054600181600116156101000203166002900480601f0160208091040260200160405190810160405280929190818152602001828054600181600116156101000203166002900480156112205780601f106111f557610100808354040283529160200191611220565b820191906000526020600020905b81548152906001019060200180831161120357829003601f168201915b50505050509550600760008b8152602001908152602001600020600a01549450600760008b8152602001908152602001600020600b0160009054906101000a900460ff16600781111561126f57fe5b9350600760008b8152602001908152602001600020600b0160019054906101000a900473ffffffffffffffffffffffffffffffffffffffff169250600760008b8152602001908152602001600020600c0160009054906101000a900473ffffffffffffffffffffffffffffffffffffffff169150600760008b8152602001908152602001600020600d0160009054906101000a900473ffffffffffffffffffffffffffffffffffffffff1690508888888888888888889850985098509850985098509850985098509193959799909294969850565b600061135a8260026122ec90919063ffffffff16565b9050919050565b611369611817565b73ffffffffffffffffffffffffffffffffffffffff163373ffffffffffffffffffffffffffffffffffffffff161415156113a257600080fd5b600073ffffffffffffffffffffffffffffffffffffffff16600460009054906101000a900473ffffffffffffffffffffffffffffffffffffffff1673ffffffffffffffffffffffffffffffffffffffff167f5c486528ec3e3f0ea91181cff8116f02bfa350e03b8b6f12e00765adbb5af85c60405160405180910390a36000600460006101000a81548173ffffffffffffffffffffffffffffffffffffffff021916908373ffffffffffffffffffffffffffffffffffffffff160217905550565b600080600080606080606080600760008a8152602001908152602001600020600001549750600760008a8152602001908152602001600020600101549650600760008a815260200190815260200160002060020160009054906101000a900473ffffffffffffffffffffffffffffffffffffffff169550600760008a815260200190815260200160002060030160009054906101000a900473ffffffffffffffffffffffffffffffffffffffff169450600760008a81526020019081526020016000206004018054600181600116156101000203166002900480601f0160208091040260200160405190810160405280929190818152602001828054600181600116156101000203166002900480156115bd5780601f10611592576101008083540402835291602001916115bd565b820191906000526020600020905b8154815290600101906020018083116115a057829003601f168201915b50505050509350600760008a81526020019081526020016000206005018054600181600116156101000203166002900480601f01602080910402602001604051908101604052809291908181526020018280546001816001161561010002031660029004801561166e5780601f106116435761010080835404028352916020019161166e565b820191906000526020600020905b81548152906001019060200180831161165157829003601f168201915b50505050509250600760008a81526020019081526020016000206006018054600181600116156101000203166002900480601f01602080910402602001604051908101604052809291908181526020018280546001816001161561010002031660029004801561171f5780601f106116f45761010080835404028352916020019161171f565b820191906000526020600020905b81548152906001019060200180831161170257829003601f168201915b50505050509150600760008a81526020019081526020016000206007018054600181600116156101000203166002900480601f0160208091040260200160405190810160405280929190818152602001828054600181600116156101000203166002900480156117d05780601f106117a5576101008083540402835291602001916117d0565b820191906000526020600020905b8154815290600101906020018083116117b357829003601f168201915b50505050509050878787878787878797509750975097509750975097509750919395975091939597565b60006118108260006122ec90919063ffffffff16565b9050919050565b6000600460009054906101000a900473ffffffffffffffffffffffffffffffffffffffff16905090565b6000600460009054906101000a900473ffffffffffffffffffffffffffffffffffffffff1673ffffffffffffffffffffffffffffffffffffffff163373ffffffffffffffffffffffffffffffffffffffff1614905090565b6118a2816124e8565b50565b80600660078111156118b357fe5b60076000838152602001908152602001600020600b0160009054906101000a900460ff1660078111156118e257fe5b1415156118ee57600080fd5b60076000838152602001908152602001600020600d0160009054906101000a900473ffffffffffffffffffffffffffffffffffffffff168073ffffffffffffffffffffffffffffffffffffffff163373ffffffffffffffffffffffffffffffffffffffff1614151561195f57600080fd5b611968336117fa565b151561197357600080fd5b6007806000858152602001908152602001600020600b0160006101000a81548160ff021916908360078111156119a557fe5b02179055507fa8142743f8f70a4c26f3691cf4ed59718381fb2f18070ec52be1f1022d855557836040518082815260200191505060405180910390a1505050565b60006119fc8260036122ec90919063ffffffff16565b9050919050565b611a0c33612542565b565b611a178161259c565b50565b6000808260036007811115611a2b57fe5b60076000838152602001908152602001600020600b0160009054906101000a900460ff166007811115611a5a57fe5b141515611a6657600080fd5b8360008060076000888152602001908152602001600020600a0154803410151515611a9057600080fd5b60076000898152602001908152602001600020600a015496503395506007600089815260200190815260200160002060020160009054906101000a900473ffffffffffffffffffffffffffffffffffffffff1673ffffffffffffffffffffffffffffffffffffffff166108fc889081150290604051600060405180830381858888f19350505050158015611b28573d6000803e3d6000fd5b5085600760008a815260200190815260200160002060020160006101000a81548173ffffffffffffffffffffffffffffffffffffffff021916908373ffffffffffffffffffffffffffffffffffffffff16021790555085600760008a8152602001908152602001600020600d0160006101000a81548173ffffffffffffffffffffffffffffffffffffffff021916908373ffffffffffffffffffffffffffffffffffffffff1602179055506004600760008a8152602001908152602001600020600b0160006101000a81548160ff02191690836007811115611c0657fe5b02179055507f92f64ca637d023f354075a4be751b169c1a8a9ccb6d33cdd0cb3520543995727886040518082815260200191505060405180910390a15060076000848152602001908152602001600020600a01549150813403905060076000848152602001908152602001600020600d0160009054906101000a900473ffffffffffffffffffffffffffffffffffffffff1673ffffffffffffffffffffffffffffffffffffffff166108fc829081150290604051600060405180830381858888f19350505050158015611cdd573d6000803e3d6000fd5b5050505050505050565b8060016007811115611cf557fe5b60076000838152602001908152602001600020600b0160009054906101000a900460ff166007811115611d2457fe5b141515611d3057600080fd5b6007600083815260200190815260200160002060030160009054906101000a900473ffffffffffffffffffffffffffffffffffffffff168073ffffffffffffffffffffffffffffffffffffffff163373ffffffffffffffffffffffffffffffffffffffff16141515611da157600080fd5b611daa33611344565b1515611db557600080fd5b600260076000858152602001908152602001600020600b0160006101000a81548160ff02191690836007811115611de857fe5b02179055507f26aeaf6aa11656fd0fe35f8f689c6755044c86f4727f1f77785c515cdab7994c836040518082815260200191505060405180910390a1505050565b611e31611817565b73ffffffffffffffffffffffffffffffffffffffff163373ffffffffffffffffffffffffffffffffffffffff16141515611e6a57600080fd5b611e73816125f6565b50565b8060056007811115611e8457fe5b60076000838152602001908152602001600020600b0160009054906101000a900460ff166007811115611eb357fe5b141515611ebf57600080fd5b60076000838152602001908152602001600020600c0160009054906101000a900473ffffffffffffffffffffffffffffffffffffffff168073ffffffffffffffffffffffffffffffffffffffff163373ffffffffffffffffffffffffffffffffffffffff16141515611f3057600080fd5b611f39336119e6565b1515611f4457600080fd5b600660076000858152602001908152602001600020600b0160006101000a81548160ff02191690836007811115611f7757fe5b02179055507ff00b9a5725b80c54016f42114f6ed7792d22eecb116011c4afac29c57bef6c95836040518082815260200191505060405180910390a1505050565b8160046007811115611fc657fe5b60076000838152602001908152602001600020600b0160009054906101000a900460ff166007811115611ff557fe5b14151561200157600080fd5b6007600084815260200190815260200160002060030160009054906101000a900473ffffffffffffffffffffffffffffffffffffffff168073ffffffffffffffffffffffffffffffffffffffff163373ffffffffffffffffffffffffffffffffffffffff1614151561207257600080fd5b61207b33611344565b151561208657600080fd5b600560076000868152602001908152602001600020600b0160006101000a81548160ff021916908360078111156120b957fe5b02179055508260076000868152602001908152602001600020600c0160006101000a81548173ffffffffffffffffffffffffffffffffffffffff021916908373ffffffffffffffffffffffffffffffffffffffff1602179055507f9b3b66e2380b690bae22c73ef1428fb0c91e72fe14a4b6defa13035214187aff846040518082815260200191505060405180910390a150505050565b806000600781111561215e57fe5b60076000838152602001908152602001600020600b0160009054906101000a900460ff16600781111561218d57fe5b14151561219957600080fd5b6007600083815260200190815260200160002060030160009054906101000a900473ffffffffffffffffffffffffffffffffffffffff168073ffffffffffffffffffffffffffffffffffffffff163373ffffffffffffffffffffffffffffffffffffffff1614151561220a57600080fd5b61221333611344565b151561221e57600080fd5b600160076000858152602001908152602001600020600b0160006101000a81548160ff0219169083600781111561225157fe5b02179055507f0b217ad5c70346c7cd952bd2463c6684a56f9ed229f5780947586625781b4770836040518082815260200191505060405180910390a1505050565b6122a68160006126f290919063ffffffff16565b8073ffffffffffffffffffffffffffffffffffffffff167f28b26e7a3d20aedbc5f8f2ebf7da671c0491723a2b78f47a097b0e46dee0714260405160405180910390a250565b60008073ffffffffffffffffffffffffffffffffffffffff168273ffffffffffffffffffffffffffffffffffffffff161415151561232957600080fd5b8260000160008373ffffffffffffffffffffffffffffffffffffffff1673ffffffffffffffffffffffffffffffffffffffff16815260200190815260200160002060009054906101000a900460ff16905092915050565b6123948160036126f290919063ffffffff16565b8073ffffffffffffffffffffffffffffffffffffffff167f3edf7fbf8b7798e112e80b62e99d0d02aad9b90bb6bde8594b26769fe66d2f0b60405160405180910390a250565b6123ee8160026127a290919063ffffffff16565b8073ffffffffffffffffffffffffffffffffffffffff167f71146b70dcaea4b40f537c9b94bea43823a1ac5f0940c880770361b4c90da4b760405160405180910390a250565b6124488160016127a290919063ffffffff16565b8073ffffffffffffffffffffffffffffffffffffffff167fe9f3c37d79ca9deec2d20dbe6c61a6841b4ecf7514cf7270f507f69afa54860360405160405180910390a250565b6124a28160006127a290919063ffffffff16565b8073ffffffffffffffffffffffffffffffffffffffff167fe3f5ed5f263f1f01764a96edfc7d025f511ec5f7d180e8816908b78bcf74f09860405160405180910390a250565b6124fc8160026126f290919063ffffffff16565b8073ffffffffffffffffffffffffffffffffffffffff167fc2116b89b5e25ab46bf9e7c8867857c279cae150c9124db9fb2d9019833267d660405160405180910390a250565b6125568160036126f290919063ffffffff16565b8073ffffffffffffffffffffffffffffffffffffffff167f5af924b55ba36fb468e40e667491097679bb9bd13a8238fea01ad352f6f96bee60405160405180910390a250565b6125b08160016126f290919063ffffffff16565b8073ffffffffffffffffffffffffffffffffffffffff167fd5ba4d4d7d415d35174d230a1cd78cb675802bba2852b75cdcebef90a002465e60405160405180910390a250565b600073ffffffffffffffffffffffffffffffffffffffff168173ffffffffffffffffffffffffffffffffffffffff161415151561263257600080fd5b8073ffffffffffffffffffffffffffffffffffffffff16600460009054906101000a900473ffffffffffffffffffffffffffffffffffffffff1673ffffffffffffffffffffffffffffffffffffffff167f5c486528ec3e3f0ea91181cff8116f02bfa350e03b8b6f12e00765adbb5af85c60405160405180910390a380600460006101000a81548173ffffffffffffffffffffffffffffffffffffffff021916908373ffffffffffffffffffffffffffffffffffffffff16021790555050565b600073ffffffffffffffffffffffffffffffffffffffff168173ffffffffffffffffffffffffffffffffffffffff161415151561272e57600080fd5b61273882826122ec565b15151561274457600080fd5b60018260000160008373ffffffffffffffffffffffffffffffffffffffff1673ffffffffffffffffffffffffffffffffffffffff16815260200190815260200160002060006101000a81548160ff0219169083151502179055505050565b600073ffffffffffffffffffffffffffffffffffffffff168173ffffffffffffffffffffffffffffffffffffffff16141515156127de57600080fd5b6127e882826122ec565b15156127f357600080fd5b60008260000160008373ffffffffffffffffffffffffffffffffffffffff1673ffffffffffffffffffffffffffffffffffffffff16815260200190815260200160002060006101000a81548160ff0219169083151502179055505050565b828054600181600116156101000203166002900490600052602060002090601f016020900481019282601f1061289257805160ff19168380011785556128c0565b828001600101855582156128c0579182015b828111156128bf5782518255916020019190600101906128a4565b5b5090506128cd91906128d1565b5090565b6128f391905b808211156128ef5760008160009055506001016128d7565b5090565b905600a165627a7a72305820a10766771728f1647d3afd67822098ab47941066d2c0bda8694978b6a28c4e760029",
  "source": "pragma solidity ^0.4.24;\n// Define a contract 'Supplychain'\nimport \"../beehivesaccesscontrol/ConsumerRole.sol\";\nimport \"../beehivesaccesscontrol/MarketPlaceRole.sol\";\nimport \"../beehivesaccesscontrol/BeekeeperRole.sol\";\nimport \"../beehivesaccesscontrol/CourierRole.sol\";\nimport \"../beehivescore/Ownable.sol\";\n\n\n// Define a contract 'Supplychain'\ncontract SupplyChain is ConsumerRole, MarketPlaceRole, BeekeeperRole, CourierRole, Ownable {\n\n  // Define 'owner'\n  //address SupplyChainOwner;\n\n  // Define a variable called 'upc' for Universal Product Code (UPC)\n  uint  upc;\n\n  // Define a variable called 'sku' for Stock Keeping Unit (SKU)\n  // A SKU (or Stock Keeping Unit) is a separate code for the purposes of tracking \n  // inventory at a manufacturer  a single product may have different SKUs if its sold by different retailers.\n  uint  sku;\n\n  // Define a public mapping 'items' that maps the UPC to an Item.\n  mapping (uint => Item) items;\n\n  // Define a public mapping 'itemsHistory' that maps the UPC to an array of TxHash, \n  // that track its journey through the supply chain -- to be sent from DApp.\n  mapping (uint => string[]) itemsHistory;\n  \n  // Define enum 'State' with the following values:\n  enum State \n  { \n    Created,  // 0\n    Ready,  // 1\n    Advertised,     // 2\n    ForSale,    // 3\n    Sold,       // 4\n    Packed,   // 5    \n    Shipped,    // 6\n    Received   // 7\n    }\n\n  State constant defaultState = State.Created;\n\n  // Define a struct 'Item' with the following fields:\n  struct Item {\n    uint    sku;  // Stock Keeping Unit (SKU)\n    uint    upc; // Universal Product Code (UPC), generated by the Beekeeper, goes on the package, can be verified by the Consumer\n    address ownerID;  // Metamask-Ethereum address of the current owner as the product moves through stages\n    address originFarmerID; // Metamask-Ethereum address of the Beekeeper\n    string  originFarmName; // Beekeeper Name\n    string  originFarmInformation;  // Farmer Information\n    string  originFarmLatitude; // Farm Latitude\n    string  originFarmLongitude;  // Farm Longitude\n    uint    productID;  // Product ID potentially a combination of upc + sku\n    string  productNotes; // Product Notes\n    uint    productPrice; // Product Price\n    State   itemState;  // Product State as represented in the enum above\n    address MarketPlaceID;  // Metamask-Ethereum address of the MarketPlace\n    address CourierID; // Metamask-Ethereum address of the Courier\n    address consumerID; // Metamask-Ethereum address of the Consumer\n  }\n\n  // Define 8 events with the same 8 state values and accept 'upc' as input argument\n  event Created(uint upc);\n  event Ready(uint upc);\n  event Advertised(uint upc);\n  event ForSale(uint upc);\n  event Sold(uint upc);\n  event Packed(uint upc);\n  event Shipped(uint upc);\n  event Received(uint upc);\n\n  // Define a modifer that checks to see if msg.sender == SupplyChainOwner of the contract\n  modifier onlyOwner() {\n    require(msg.sender == owner());\n    _;\n  }\n\n  // Define a modifer that verifies the Caller\n  modifier verifyCaller (address _address) {\n    require(msg.sender == _address); \n    _;\n  }\n\n  // Define a modifier that checks if the paid amount is sufficient to cover the price\n  modifier paidEnough(uint _price) { \n    require(msg.value >= _price); \n    _;\n  }\n  \n  // Define a modifier that checks the price and refunds the remaining balance\n  modifier checkValue(uint _upc) {\n    _;\n    uint _price = items[_upc].productPrice;\n    uint amountToReturn = msg.value - _price;\n    items[_upc].consumerID.transfer(amountToReturn);\n  }\n\n  // Define a modifier that checks if an item.state of a upc is Created\n  modifier created(uint _upc) {\n    require(items[_upc].itemState == State.Created);\n    _;\n  }\n\n  // Define a modifier that checks if an item.state of a upc is Ready\n  modifier ready(uint _upc) {\n    require(items[_upc].itemState == State.Ready);\n    _;\n  }\n  \n    // Define a modifier that checks if an item.state of a upc is Advertised\n  modifier advertised(uint _upc) {\n    require(items[_upc].itemState == State.Advertised);\n    _;\n  }\n\n  // Define a modifier that checks if an item.state of a upc is ForSale\n  modifier forSale(uint _upc) {\n    require(items[_upc].itemState == State.ForSale);\n    _;\n  }\n\n  // Define a modifier that checks if an item.state of a upc is Sold\n  modifier sold(uint _upc) {\n    require(items[_upc].itemState == State.Sold);\n    _;\n  }\n  \n    // Define a modifier that checks if an item.state of a upc is Packed\n  modifier packed(uint _upc) {\n    require(items[_upc].itemState == State.Packed);\n    _;\n  }\n\n  // Define a modifier that checks if an item.state of a upc is Shipped\n  modifier shipped(uint _upc) {\n    require(items[_upc].itemState == State.Shipped);\n    _;\n  }\n\n  // Define a modifier that checks if an item.state of a upc is Received\n  modifier received(uint _upc) {\n    require(items[_upc].itemState == State.Received);\n    _;\n  }\n\n  // In the constructor set 'owner' to the address that instantiated the contract\n  // and set 'sku' to 1\n  // and set 'upc' to 1\n  //to call parent constructor!!\n  constructor() public payable Ownable() {\n    //SupplyChainOwner = msg.sender;\n    sku = 1;\n    upc = 1;\n  }\n\n  // Define a function 'kill' if required\n  function kill() public {\n    if (isOwner()) {\n      selfdestruct(owner());\n    }\n  }\n\n  // Define a function 'createItem' that allows a farmer to mark an item 'Created'\n  function createItem(uint _upc, address _originFarmerID, string _originFarmName, string _originFarmInformation, string  _originFarmLatitude, string  _originFarmLongitude, string  _productNotes) public \n  {\n    // Add the new item as part of Created\n    items[_upc].itemState = defaultState;\n    items[_upc].sku = sku;\n    items[_upc].upc = _upc;\n    items[_upc].ownerID = _originFarmerID;\n    items[_upc].originFarmerID = _originFarmerID;\n    items[_upc].originFarmName = _originFarmName;\n    items[_upc].originFarmInformation = _originFarmInformation;\n    items[_upc].originFarmLatitude = _originFarmLatitude;\n    items[_upc].originFarmLongitude = _originFarmLongitude;\n    items[_upc].productNotes = _productNotes;\n    items[_upc].MarketPlaceID = _originFarmerID;\n    items[_upc].CourierID = _originFarmerID;\n    items[_upc].consumerID = _originFarmerID;\n    items[_upc].productID = sku + _upc; // Product ID potentially a combination of upc + sku\n\n    // Increment sku\n    sku = sku + 1;\n    // Emit the appropriate event\n    emit Created(_upc);\n  }\n\n  // Define a function 'HiveReady' that allows a beekeeper to mark an item 'Ready'\n  function HiveReady(uint _upc) public created(_upc) verifyCaller(items[_upc].originFarmerID) onlyBeekeeper()\n  // Call modifier to check if upc has passed previous supply chain stage\n  // Call modifier to verify caller of this function\n  {\n    // Update the appropriate fields\n    items[_upc].itemState = State.Ready;\n\n    // Emit the appropriate event\n    emit Ready(_upc);\n  }\n\n  // Define a function 'advertiseItem' that allows the beekeeper to mark an item 'Advertised'\n  // Call modifier to check if upc has passed previous supply chain stage\n  function advertiseItem(uint _upc) public ready(_upc) verifyCaller(items[_upc].originFarmerID) onlyBeekeeper()\n    // Access Control List enforced by calling Smart Contract / DApp ??\n    {\n    // Update the appropriate fields: itemState\n     //items[_upc].MarketPlaceID = _MarketPlaceID;  // Metamask-Ethereum address of the MarketPlace\n     items[_upc].itemState = State.Advertised;\n     //MarketPlaceRole.addMarketPlace(_MarketPlaceID);\n\n    // Emit the appropriate event\n    emit Advertised(_upc);\n  }\n\n  // Define a function 'sellItem' that allows a MarketPlace to mark an item 'ForSale'\n  function sellItem(uint _upc, uint _price) public advertised(_upc) verifyCaller(items[_upc].MarketPlaceID) //onlyMarketPlace()\n  // Call modifier to check if upc has passed previous supply chain stage\n  // Call modifier to verify caller of this function.\n  {\n    // Update the appropriate fields\n    items[_upc].productPrice = _price;\n    items[_upc].itemState = State.ForSale;\n\n    // Emit the appropriate event\n    emit ForSale(_upc);\n  }\n\n  // Define a function 'buyItem' that allows the Seller to mark an item 'Sold'\n  // Use the above defined modifiers to check if the item is available for sale, if the buyer has paid enough, \n  // and any excess ether sent is refunded back to the buyer\n  function buyItem(uint _upc) public payable forSale(_upc) checkValue(_upc) paidEnough(items[_upc].productPrice) \n    // Call modifier to check if upc has passed previous supply chain stage\n    // Call modifer to check if buyer has paid enough\n    // Call modifer to send any excess ether back to buyer\n    {\n    // Update the appropriate fields - ownerID, distributorID, itemState\n    uint256 _price = items[_upc].productPrice;\n    address _consumerID = msg.sender; // Metamask-Ethereum address of the Consumer\n\n    // Transfer money to farmer\n    items[_upc].ownerID.transfer(_price);\n    items[_upc].ownerID = _consumerID;\n    items[_upc].consumerID = _consumerID;\n    items[_upc].itemState = State.Sold;\n    //ConsumerRole.addConsumer(_consumerID);\n\n    // emit the appropriate event\n    emit Sold(_upc);\n  }\n\n // Define a function 'packItem' that allows a farmer to mark an item 'Packed'\n  function packItem(uint _upc, address _CourierID) public sold(_upc) verifyCaller(items[_upc].originFarmerID) onlyBeekeeper()\n  // Call modifier to check if upc has passed previous supply chain stage\n  // Call modifier to verify caller of this function\n  {\n    // Update the appropriate fields\n    items[_upc].itemState = State.Packed;\n    items[_upc].CourierID = _CourierID;\n    //CourierRole.addCourier( _CourierID);\n\n    // Emit the appropriate event\n    emit Packed(_upc);\n  }\n\n  // Define a function 'shipItem' that allows the courier to mark an item 'Shipped'\n  // Use the above modifers to check if the item is packed\n  function shipItem(uint _upc) public packed(_upc) verifyCaller(items[_upc].CourierID) onlyCourier()\n    // Call modifier to check if upc has passed previous supply chain stage\n    // Call modifier to verify caller of this function\n    {\n    // Update the appropriate fields\n    items[_upc].itemState = State.Shipped;\n\n   \n    // Emit the appropriate event\n    emit Shipped(_upc);\n  }\n\n  // Define a function 'receiveItem' that allows the consumer to mark an item 'Received'\n  // Use the above modifiers to check if the item is shipped\n  function receiveItem(uint _upc) public shipped(_upc) verifyCaller(items[_upc].consumerID) onlyConsumer()\n    // Call modifier to check if upc has passed previous supply chain stage\n    // Access Control List enforced by calling Smart Contract / DApp\n    {\n    // Update the appropriate fields: itemState\n    items[_upc].itemState = State.Received;\n\n    // Emit the appropriate event\n    emit Received(_upc);    \n  }\n\n  // Define a function 'fetchItemBufferOne' that fetches the data\n  function fetchItemBufferOne(uint _upc) public view returns \n  (\n  uint    itemSKU,\n  uint    itemUPC,\n  address ownerID,\n  address originFarmerID,\n  string  originFarmName,\n  string  originFarmInformation,\n  string  originFarmLatitude,\n  string  originFarmLongitude\n  ) \n  {\n  // Assign values to the 8 parameters\n    itemSKU = items[_upc].sku;\n    itemUPC = items[_upc].upc;\n    ownerID = items[_upc].ownerID;\n    originFarmerID = items[_upc].originFarmerID;\n    originFarmName = items[_upc].originFarmName;\n    originFarmInformation = items[_upc].originFarmInformation;\n    originFarmLatitude = items[_upc].originFarmLatitude;\n    originFarmLongitude = items[_upc].originFarmLongitude;\n\n  return \n  (\n    itemSKU,\n    itemUPC,\n    ownerID,\n    originFarmerID,\n    originFarmName,\n    originFarmInformation,\n    originFarmLatitude,\n    originFarmLongitude\n  );\n  }\n\n  // Define a function 'fetchItemBufferTwo' that fetches the data\n  function fetchItemBufferTwo(uint _upc) public view returns \n  (\n  uint    itemSKU,\n  uint    itemUPC,\n  uint    productID,\n  string  productNotes,\n  uint    productPrice,\n  uint    itemState,\n  address MarketPlaceID,\n  address CourierID,\n  address consumerID\n  ) \n  {\n    // Assign values to the 9 parameters\n  itemSKU = items[_upc].sku;\n  itemUPC = items[_upc].upc;\n  productID = items[_upc].productID;\n  productNotes = items[_upc].productNotes;\n  productPrice = items[_upc].productPrice;\n  itemState = uint(items[_upc].itemState);\n  MarketPlaceID = items[_upc].MarketPlaceID;\n  CourierID = items[_upc].CourierID;\n  consumerID = items[_upc].consumerID; \n  return \n  (\n    itemSKU,\n    itemUPC,\n    productID,\n    productNotes,\n    productPrice, \n    itemState,\n    MarketPlaceID,  \n    CourierID,\n    consumerID\n  );\n  }\n}\n",
  "sourcePath": "/Users/anolan/code/udacity/BlockChainDeveloper_II/BlockchainSupplyChainSolution/project-6/project-6/contracts/beehivesbase/SupplyChain.sol",
  "compiler": {
    "name": "solc",
    "version": "0.4.25+commit.59dbf8f1.Emscripten.clang"
  },
  "schemaVersion": "2.0.2",
  "updatedAt": "2019-07-19T11:34:47.370Z"
}